:08180000CE1F040000000000EF
:08184800300E04000000000056
:081860008E14040000000000DA
:08188800E2140400000000005E
:0818A000860E040000000000A8
:0818E800FC0D040000000000EB
:081BF8004200F8003600F8007D
:101C00003200F800801F7800200020000C0009003E
:101C1000B01F7800C8A2A800CAA2AE000400370016
:101C2000B028EC004220AF00B228EC0003003700DF
:101C3000B028ED004200AE00B228ED008680A90079
:101C4000A00120000C0009004F1078004F00780020
:101C50003200F9003600F9004200F90000400600A9
:101C60004200F8003600F8003200F800801F7800CB
:101C7000200020000C000900B01F7800C8C2A80096
:101C8000CAC2AF0004003700B428EC004220AF0005
:101C9000B628EC0003003700B428ED004200AE0087
:101CA000B628ED008400A900A00120000C00090066
:101CB0004F1078004F0078003200F9003600F9002C
:101CC0004200F90000400600851F780005642000EE
:101CD0007E130900000000008502E90003003A00BD
:101CE000B828EF0000002000060037002202AE00F6
:101CF000F7FF37002202F800B808F9003011800021
:101D00002222A900CF027800000006004200F8005D
:101D10003600F8003200F800801F78002000200014
:101D20000C000900B01F7800640E020000000000E3
:101D30006CE9B700144680006220E1000B003D0012
:101D4000654B8000F50FB200F40F20000520E10084
:101D500004003A00144680006102420014468800E4
:101D600001003700C228EF000D003700C088BF0017
:101D7000C028EC0080027800648C200004834200BC
:101D80006C89BF0000439800044680006320E10096
:101D900003003400C028EF00C228EF00C408A800E8
:101DA0008560A900A00120000C0009004F107800F8
:101DB0004F0078003200F9003600F9004200F900C7
:101DC00000400600851F7800861F7800E10820008B
:101DD0000600A10000F0A600030037000600A000E6
:101DE0000000EA00000037000000E00014003200AC
:101DF00000F0A700040037004200A9000080D200D4
:101E00008100E900FAFF37000180FD004200A900CF
:101E10008180D30000F0A1000080FD0081406800B7
:101E20000040B2000600A70001F0A0000700370044
:101E3000014078000170A0000140B20003003700AB
:101E40000000EB008000EB00000037004F0378003B
:101E5000CF02780000000600851F7800C500200032
:101E600004000900B51F78008004EB00838468003B
:101E70000103780080027800030478008203780070
:101E80008180D2000180FD008180FB000100E00024
:101E90004E0032008381D2000380FD008381FB006D
:101EA0000300E000490032000000EB0003C05000D6
:101EB00003003900F047B000440031000300370050
:101EC0001048B10041003900400032008500780020
:101ED000060178000270A000F20FB200F80FB20005
:101EE0000870A0009A0120008001EB000002EB00C6
:101EF00087805000080159000200330004003100BF
:101F000004003A00878040000801490001003700C2
:101F10000400A0000A05E900070032004200A90001
:101F20008180D2000281D2004200A9000482D20046
:101F30008381D200EEFF37000005EB000380A7008D
:101F400001003700060037004200A9008381D3005A
:101F50000370A1000482D3000A85D200020037007A
:101F60000000E900190032000AF0A700050039005E
:101F70008180D2000281D200878050000801590080
:101F8000090039000402E80007003A008301E80074
:101F900005003A000000E8000C00320002003700A3
:101FA0000000E900090032000080FD008080D300BD
:101FB00001F0A00009F0A60001F0A1000370A1004B
:101FC00081C0690004007800030037000000200091
:101FD0000100200000003700450120000400090036
:101FE000CF127800CF02780000000600851F78002D
:101FF000C500200004000900B51F78000002780029
:102000008102780083037800020378004200A9006F
:102010004220A9008180D2000180FD00F10FB200B2
:102020000100E0004B0032004200A9004220A9005C
:102030008381D2000380FD00F30FB2000300E000B3
:10204000440032000080FB0001C041000400310068
:10205000F007B1003F0032003E00390002003700B7
:102060001048B0003B00310007856A004200A9001B
:102070004220A900F50FB2000570A0004200A9009F
:10208000F70FB2000770A0000621B800062CB800B8
:1020900083014C00890078004200AF008100E80015
:1020A0004200A900043CB80083014C0081804C0030
:1020B000072CB80081004C000000E8000100E0009F
:1020C0004220AF0001003700030037000300E000AA
:1020D0004220AF000500370001F0A70003003700E1
:1020E0008381D2008180D2000000E90001017800E4
:1020F0004200A9000370A6000900370007F02F0076
:10210000878161000310B000600149000200E00017
:1021100003003A000300E00001003A000000E8007C
:102120000080FD004200A9004220A9008080D30069
:102130000AF0A70001F0A00002F0A1000280FD005B
:10214000814069000380FD000341780002007800AF
:1021500003003700000020000100200000003700CD
:102160004501200004000900CF127800CF0278005A
:1021700000000600851F7800820178008202780046
:102180004200A9008381D2000380FD00F30FB2005A
:1021900003003A006000B8006011B8001600370074
:1021A0000338B000F207B200360020000002EB0056
:1021B0004200A9000281D3008180D3000080D300B7
:1021C0004200AF000402E8000603E900F8FF3A000D
:1021D0000270A100C419DD0003F0A10005F0A70002
:1021E00003F0A000830169000101780080007800FD
:1021F000810042000000EB00CF02780000000600E2
:10220000851F7800861F78007089BF00E20E0200EB
:1022100000000000800278000103780005007800CB
:102220008600780002002000634124002C0F020089
:1022300000000000800278000103780005007800AB
:10224000860078000200200003102400F60F020030
:1022500000000000010178008000780000002000EC
:10226000BA1002000000000072A9B700A14B88005C
:10227000B24B8800C34B88007289BF00A14B80001D
:10228000B24B8000C34B80004F037800CF02780030
:1022900000000600851F7800861F78000302780082
:1022A000030378004200A90044A2DE00F57F20006D
:1022B0000482620003003A006000B8000001EB00F5
:1022C000130037000438B100F300B20037002000DB
:1022D0004200A9000080D2008180D2000281D20099
:1022E0008381D2008703E900F9FF3A0001007800FA
:1022F000820078000370A1000480FD004200A90064
:102300000482D30006F0A70004F0A00003016A00D5
:102310004F037800CF02780000000600851F780088
:10232000C500200003000900B51F78008004EB0001
:10233000080028004300AF0083016C000000E000AB
:1023400003003A00FAFF27000A8560004220AE0031
:10235000010578008A85690001037800830378000D
:10236000030678004220A9004200A9000683D2009B
:102370000680FD00F60FB2000600E000A10032006A
:102380004220A9004200A9008783D2000780FD00F7
:10239000F70FB2000700E0009F0032004220A900C2
:1023A0004200A9000638E1009C003200A30033007F
:1023B0000900A1000910A00006845300070378005B
:1023C000F10FB2000170A000F30FB2000370A00083
:1023D000870220000838E100110033004220A900E4
:1023E0004200A9008180D3000080D3000804E900E6
:1023F000FAFF3A000D003700870220000838E1009C
:10240000090033004220A9004200A9008381D300C3
:102410000281D3000804E900FAFF3A000F003700F8
:102420000200780083007800430037000BF0A6001C
:10243000110037000940A7008C0578000000EA0071
:102440000200320081C0EA00010037008100EA008A
:102450000940A7002B003700070037000BF0A6004B
:10246000050037000201EA000200320083C1EA00E1
:10247000010037008301EA00F50FB2004220A900F5
:102480004200A9000200400083C048004200AF00A3
:102490000930A0000900A700090037000910A700B3
:1024A000010037000B0037000BF0A70015003700C4
:1024B0000930A700290037000960A0001E0037007E
:1024C0000BF0A7000F0037000930A70023003700EA
:1024D000190037000920A1000BF0A7000400370005
:1024E0008A0578000930A7001C0037003600370045
:1024F0000940A00001C8B2000170A700CDFF37005D
:102500008A057800F10FB200810370000A003200E2
:102510000170A700080037004220A9004200A9006E
:102520000080D2008180D2000603E9004220AF0083
:1025300031003700F6FF37000900A7008A05780050
:102540000910A7008C0578000950A6001A00370072
:102550000AF0A7000080A0001B0037004200A8007E
:1025600081C0D3000080D3004200AF000950A0001A
:102570000603E800200032000950A60008003700DA
:102580000000E80006003A008140E80004003A003C
:1025900081C0D3000080D3000603E800160032009B
:1025A0000900A7008A0578000910A7008C057800AB
:1025B0004220AF00100037000960A7008A057800AC
:1025C0000970A7008C05780001017000230032001B
:1025D0000170A1000680FD004220A9004200A90070
:1025E0000683D30081006B0001F0A0000BF0A60071
:1025F00001F0A100190037000000200001002000B8
:10260000160037000AF0A70083016C000200780072
:10261000830078001100370010003700F30FB2007C
:102620000370A000F10FB2000170A0000BF0A70032
:102630000370A1000920A00088FF370007045300A1
:10264000F10FB2000170A000F30FB2000370A00000
:102650000910A1000900A00067FF37002501200034
:1026600003000900CF127800CF02780000000600B6
:10267000851F7800861F78004300A8006489BF008A
:10268000314B8000B2478000C34780008E110200AA
:1026900000000000D6A8B700C14688004300A8008B
:1026A0006889BF00514B8000D2478000E34780001B
:1026B0008E11020000000000E6A8B7004147880024
:1026C000D688BF00C1468000A2702D0033C223000F
:1026D000F60F0200000000004300A900000178008E
:1026E00081017800DA88BF00E14680008E11020087
:1026F00000000000DAA8B700E1468800E688BF00C5
:1027000041478000A2702D0033C22300F60F020063
:10271000000000004300A90000017800810178005A
:10272000EA88BF00614780008E11020000000000AF
:10273000EAA8B700614788004300A800D688BF0018
:10274000C1468000F2468000034780008E110200DF
:102750000000000080027800010378000500780086
:1027600086007800A2702D0033C223002C0F0200D7
:10277000000000006CA9B700714B88004300A8005E
:10278000E688BF0041478000724780008347800091
:102790008E11020000000000800278000103780022
:1027A0000500780086007800A2702D0033C2230057
:1027B0002C0F02000000000070A9B700914B8800A8
:1027C00000002000811C2400B2468000C346800027
:1027D000F60F02000000000080027800010378007C
:1027E0000000200001002000D2468000E346800067
:1027F000F60F0200000000004300A900000178006D
:102800008101780005007800860078008E110200B2
:102810000000000080027800010378000000200022
:1028200001002000624B8000734B8000F60F020015
:10283000000000004300A900000178008101780039
:1028400005007800860078008E110200000000006C
:10285000E2A8B7002147880000002000811C240066
:102860003247800043478000F60F0200000000005E
:1028700080027800010378000000200001002000A1
:102880005247800063478000F60F020000000000FE
:102890004300A9000001780081017800050078005C
:1028A000860078008E11020000000000800278008F
:1028B000010378000000200001042400824B800006
:1028C000934B8000F60F0200000000004300A900B7
:1028D000000178008101780005007800860078000A
:1028E0008E11020000000000F2A8B700A147880086
:1028F000D608F800DE08F900D808F800E008F9006A
:10290000E608F800EE08F900E808F800F008F90019
:102910004F037800CF027800000006004200F80064
:102920003600F8003200F800801F780020002000F8
:102930000C000900B01F780085458000854B880099
:1029400000110200000000004A1102000000000017
:10295000B1478800C2478800A5458000854B8800A4
:1029600000110200000000004A11020000000000F7
:10297000D1478800E24788000009F8006409F9009F
:102980000209F8006609F9000409F8006809F9006D
:102990000609F8006A09F900381302000000000077
:1029A0008460A900A00120000C0009004F107800ED
:1029B0004F0078003200F9003600F9004200F900BB
:1029C000004006004200F8003600F8003200F8002F
:1029D000801F7800200020000C000900B01F780044
:1029E000C922A800CB22AF0027003700C488AF005F
:1029F00024003700C488A800544880006120E1000A
:102A000011003A000889BF00F44780000020E1006F
:102A1000030035000809F800FE08F9000900370036
:102A2000F44780006520E1000200340050002000DF
:102A300003003700F4478000610242000400780080
:102A4000FEA8B7000F003700FE88BF004448800092
:102A50000020E100030035000809F800FE08F90035
:102A600008003700F44780006120E10002003D00CB
:102A70001000200002003700F4478000610052007F
:102A8000FEA8B70001003700C488A9008500A9008E
:102A9000A00120000C0009004F1078004F007800C2
:102AA0003200F9003600F9004200F900004006004B
:102AB0000421EF0004E22400140888000401280027
:102AC000240888009460A8001221EF00244E200002
:102AD0007408880004032800940888009500A80062
:102AE0001E21EF001AA1EF0004032800F40888005B
:102AF0001421EF00000006001021EF0004FA20006E
:102B0000640888000401280084088800640020000C
:102B1000240C880064002000540C8800E40020008D
:102B2000840C8800E4002000B40C8800000006003B
:102B30009560A800000006009680A8008220A800EA
:102B40009400A8008200A800000006001009F80008
:102B50008C01F900000006001009F8009201F9004C
:102B6000000006000000E0004220AF000400370033
:102B70007B3E0900000000000000E900FCFF3A0075
:102B8000000006004401200004168800042F2300E2
:102B90004416880081E0A900040E20001402880079
:102BA00081E0A80058150200000000007C1502001A
:102BB0000000000098150200000000009C150200B3
:102BC0000000000081E0A9004220EF0081E0A800A1
:102BD000BC68EF00C428A900C448A900C468A900C3
:102BE000F407200084488800A615020000000000B9
:102BF0004406200084488800AC1502000000000054
:102C0000007D2000B2150200000000000000060058
:102C1000851F7800C500200003000900B51F78005B
:102C200000027800810278000203780083037800B4
:102C30000000EB008000EB000001EB008001EB00E6
:102C40000800A10007F0A600050037000800A0005A
:102C50000402EA008582EA000683EA008783EA002C
:102C60008504720002003A008704730015003200E8
:102C7000394720000340A7000B0037004200A9009D
:102C80000482D2008582D2000683D2008783D200DC
:102C90000080D2008180D2000281D2008381D200E4
:102CA0008904E900F3FF3A00C44CDD004200A900AA
:102CB00009F0A1000340A10083816C000800A70077
:102CC00003F0A0002501200003000900CF127800C6
:102CD000CF02780000000600881F7800280120003D
:102CE00004000900B81F78008005EB006066B8009A
:102CF0000304780087047800FA7F20004200A900CE
:102D00004220A90044C4DE00080465000800E00079
:102D1000710032004200A9004220A900C4CCDE00AC
:102D2000890465000900E0006B003200088444005B
:102D300009B0A70004003700F83FB1006600320078
:102D400065003900030037001A4020008542450025
:102D500061003100878669004200A9004220A90075
:102D6000F300B2000340A000F700B2000740A0004B
:102D7000881F78000124B800002DB8000A0544001F
:102D80008B854C000C80B0000224B8008B054400F9
:102D90000C864C00012CB8000005EB008B054400AC
:102DA0000C864C000A80B0000034B8008B0544004B
:102DB0000C864C000A80B0008005EB000324B800AC
:102DC0000C0644000A854C000B80B000022CB800B1
:102DD0000C0644000A854C000B80B0000134B8009A
:102DE0000C0644000A854C000B80B000003CB80083
:102DF0000C0644000A854C000B80B0000C007800E3
:102E00000006EB00032CB8000A0544008B854C003B
:102E10000C80B0000234B8000A0544008B854C00D9
:102E20000C80B0000334B8008B0544000C864C00C5
:102E3000013CB8000A0544008B854C000C80B000B2
:102E4000023CB8008B0544000C864C00033CB800E3
:102E50000C0644008A0078000B0178008C01780091
:102E6000540020004200A9008381D3000281D300D6
:102E70008180D3000080D3000402E900F9FF3A000A
:102E80004F0478000804E8000103700001003200DC
:102E90000200370003037100080032000340A7005E
:102EA000060037004200A9000080D2008180D200D5
:102EB0000281D2008381D2000804E9004444DD008D
:102EC00003F0A1000DF0A70003F0A0000340A10053
:102ED00083016C00030037006000B8006001B80097
:102EE00000003700A8012000040009004F147800FA
:102EF0004F04780000000600881F78002801200099
:102F000004000900B81F7800080028004300AF0043
:102F100087036C000000E00007003A000100E000B9
:102F200005003A000200E00003003A00FAFF270023
:102F30000A8561004220AE00030578008A856B0097
:102F4000030478008704780007067800FD7F2000DE
:102F50004220A9004200A90044C4DE0008846600A3
:102F60000800E000BC0032004220A9004200A90095
:102F7000C4CCDE00898466000900E000BE00320097
:102F80008006EB004220A9004200A9000848E100A9
:102F9000BA003200C10033000D00A1000D10A000E6
:102FA00008845400F300B2000340A000F700B20010
:102FB0000740A0004803B10016003B004803B000E2
:102FC0004220A9004200A9008381D3000281D300DE
:102FD0008180D3000080D3000804E900F8FF3A00A4
:102FE000140037004803B1000F003B004803B00055
:102FF0004220A9004200A9008783D3000683D300A2
:103000008582D3000482D3000804E900F8FF3A0067
:103010001B00370004007800850078000601780066
:10302000870178000C866D000CF0A7000BF0A20061
:10303000790037000BF0A6001F0037000D40A700F5
:103040008C0578000080EA008180EA000281EA00B5
:1030500083C1EA00F341B2000000E80005003A0035
:103060008100E80003003A000201E80001003A0094
:103070008341E8000D40A700320037000E00370002
:103080000BF0A6000C0037000482EA008582EA00FB
:103090000683EA0087C3EA00F741B2000402E800B1
:1030A00005003A008502E80003003A000603E80044
:1030B00001003A008743E8004220A9004200A9002D
:1030C00004004000858048000601490087C149008E
:1030D0000350A7000D30A0000D00A7000900370025
:1030E0000D10A700010037000B0037000BF0A70000
:1030F000140037000D30A700290037000D60A00034
:10310000210037000BF0A7000E0037000D30A7009C
:10311000230037001C0037000BF0A7000400370025
:103120008A0578000D30A7001D0037003A003700EF
:103130000D40A00003C1B2000340A700BFFF37004D
:103140008A057800F301B2000284710002003A009F
:10315000008470000C0032000340A7000A00370012
:103160004220A9004200A9000080D2008180D20044
:103170000281D2008381D2008904E9004220AF009D
:1031800032003700F4FF37000D00A7008A057800F1
:103190000D10A7008C0578000D50A6001E0037000A
:1031A0004200A90083C1D3000281D3008180D300F3
:1031B0000080D3004200AF000D50A0008904E80059
:1031C0004220AF00210037000D50A6000E0037004E
:1031D0000000E8000C003A008100E8000A003A0014
:1031E0000201E80008003A008301E80006003A0006
:1031F00083C1D3000281D3008180D3000080D3003B
:103200008904E800110032000D00A7008A0578004B
:103210000D10A7008C0578000102700002003A0032
:1032200003027100260032000340A1004220A900E1
:103230004200A900C44CDD0083816C0003F0A000B3
:103240000BF0A60003F0A1001D0037006000B800DD
:103250006011B8001A003700080028000AF0A70023
:1032600087036C0085007800040078000601780070
:10327000870178001200370011003700F700B20014
:103280000740A000F300B2000340A0000BF0A7002D
:103290000740A1000D20A00079FF3700F300B20025
:1032A0000340A000F700B2000740A000090454004A
:1032B000890444000D10A1000D00A00049FF370053
:1032C000A8012000040009004F1478004F04780082
:1032D00000000600851F7800C500200005000900D9
:1032E000B51F78000304780082037800010378009A
:1032F00080027800830478003B472000C499DE00F8
:10330000FA7F20008301650083855500F801B20033
:103310000840A0000000EB008000EB000001EB0083
:103320008001EB004200A9000884D3008783D3000A
:103330000683D3008582D3008381D3000281D3002A
:103340008180D3000080D3008B05E900F5FF3A00AF
:1033500009F0A600050037000000EA008180EA00BD
:103360000281EA008381EA00000037006501200045
:1033700005000900CF127800CF0278000000060097
:10338000851F7800861F7800871F780003826800F9
:1033900004F0A600060037004200A9004220A90060
:1033A00001F0A600260037004200A80024003700E4
:1033B000010278008002780003037800820378001D
:1033C0008180D2000180FD008381D2000380FD0056
:1033D00081C051000500320004F0A600180037003B
:1033E0001000200042E0B60015003700844078004D
:1033F000864178000170A1000370A10081C05100D6
:103400000500320004F0A6000D0037001000200077
:1034100042E0B6000A003700858053000500320004
:1034200004F0A600060037001000200042E0B600BD
:10343000030037004200A9000100370000003700F8
:10344000CF0378004F037800CF0278000000060019
:10345000851F78008102780000017800640B20004D
:103460008180D2000180FD00F10FB20001425200C4
:10347000854178000370A000F30FB2000000EB005C
:103480008000EB007F20E1000F0033004200A90024
:103490008381D3000281D3008180D3000080D300D8
:1034A0000402E900F9FF3A0005F0A6000600370023
:1034B0000000EA00020032008180EA0002003700CA
:1034C0008100EA0000003700CF027800000006000B
:1034D000851F7800861F78002489BF00314980004D
:1034E0000200200003F82300C019020000000000C1
:1034F0000300390000002000010020000200370016
:103500002489BF003149800024A9B70031498800CF
:103510004200F80081E0A90042E0EF0081E0A8004D
:103520002489BF003149800002002000832C240040
:103530002C0F02000000000081E0A9004200F90009
:1035400081E0A80080027800010378004200F800C2
:1035500081E0A90042E0EF0081E0A80005007800CA
:103560008600780002002000A3572400F60F020016
:103570000000000081E0A9004200F90081E0A800FD
:10358000281A02000000000028A9B700514988004D
:103590002489BF003149800002002000832C2400D0
:1035A000C01902000000000006003A0044498000F3
:1035B00061024200444988005449800060024A0088
:1035C0005449880022C9BF000160EF000080B200AA
:1035D000050032001080B200060032003080B200D8
:1035E00007003200070037002809F8008001F900C1
:1035F000040037002809F8008601F90001003700AF
:10360000000037004F037800CF027800000006006A
:10361000851F7800861F780016C9BF000160EF0083
:103620000080B200050032001080B2001C003200A1
:103630003080B200330032004B003700B4488000C5
:103640004822DE006224E100100031001749E20048
:1036500002003A00C442A90001003700C442A80099
:10366000C042A90017C9BF000160EF000000A2001E
:103670000000E00002003A00C482A9000100370007
:10368000C482A800C082A90004003700C442A90077
:10369000C042A900C482A900C082A900320037003C
:1036A000B44880004822DE006224E10010003100AE
:1036B0001749E20002003A00CC22A90001003700BD
:1036C000CC22A800C822A90017C9BF000160EF00E2
:1036D0000000A2000000E00002003A00CC42A90075
:1036E00001003700CC42A800C842A90004003700FE
:1036F000CC22A900C822A900CC42A900C842A90036
:1037000019003700B44880004822DE006224E1003E
:10371000100031001749E20002003A00CD02A90072
:1037200001003700CD02A800C902A90017C9BF00D7
:103730000160EF000000A2000000E00002003A007B
:10374000CD42A90001003700CD42A800C942A9001E
:1037500004003700CD02A900C902A900CD42A9008A
:10376000C942A900000037001889BF0000F0A60078
:103770000300370004002000C3488000030052000B
:103780004200F80081E0A90042E0EF0081E0A800DB
:10379000E20E02000000000081E0A9004200F900F2
:1037A00081E0A8008002780001037800801F780083
:1037B00016C9BF0022E9B7004F00780025498800EC
:1037C00036498800681A0200000000004F037800A4
:1037D000CF02780000000600851F7800861F780061
:1037E00015C9BF00004378000D60EF008602780025
:1037F00014C9BF000BE0B7001629EF001829EF002D
:10380000C44880006220E1000A003D00C4488000F6
:103810006A02420004007800000278001440780038
:103820000080FB000160EF001629B4001829EC00AD
:10383000F3FF3700944880000960EF00B348800030
:10384000048041000080EA0016A9B7002322AF00DF
:10385000FEFF3700F40F2000241188002322AF0060
:10386000FEFF3700F40F2000241188002322AF0050
:10387000FEFF370012C9BF0024E2B7002562EF0047
:103880002322AF00FEFF37002402F800E5FF9F006F
:103890002402F9002562EF002322AF00FEFF37006B
:1038A0000BC0BF0024E2B7002562EF002322AF0067
:1038B000FEFF370016C9BF0024E2B7002562EF0003
:1038C0004F037800CF02780000000600851F7800C3
:1038D000C500200003000900B51F78000202B800EF
:1038E00003F0A600020037000383B900010037008F
:1038F0000303B8004200A9008502430060844B0026
:1039000001F0A60002003700028BB9000100370069
:10391000020BB80085024B0008844B000980B00000
:10392000038BB90008044B0087834C0087017800A3
:103930000801780085007800040078002501200047
:1039400003000900CF127800CF02780000000600C3
:10395000851F7800C500200003000900B51F78000E
:10396000090020004300AF0019002000891F7800E3
:103970008384680001F0A600030037008180EA001C
:103980000000EA00E080480003F0A60003003700D2
:103990008381EA000201EA00E08149000302690034
:1039A000150032000002EB008002EB000003EB0088
:1039B0008003EB00080220004200A9000080D20032
:1039C0008180D2000482D2008582D2000328E100E7
:1039D00001003A0002A0E100030039000202520097
:1039E00083825A004200A8000683D2008783D20057
:1039F0000804E900F0FF3A0009F0A60007003700CC
:103A00000600EA000100320002003A008700EA00E6
:103A1000050037008780EA00030037008700780040
:103A20000600780000003700CF0478000900E000AD
:103A3000010032000400BE0025012000030009003F
:103A4000CF127800CF02780000000600851F7800B2
:103A5000861F7800C4488000E3488000830252003B
:103A6000D4488000F348800003035A004449800092
:103A700023498000030052005449800033498000EC
:103A800083005A0000017800810178000500780069
:103A900086007800661C02000000000080027800AA
:103AA0000103780004498000E348800003005200CD
:103AB00014498000F348800083005A004300A900A5
:103AC0000001780081017800050078008600780008
:103AD000A81C0200000000008002780001037800AA
:103AE000050078002409B4003449800084004B00AC
:103AF0000000BE004F037800CF02780000000600EF
:103B0000851F7800861F7800000278008102780007
:103B10000000EB008000EB000600A10005F0A6000D
:103B2000060037000600A0000402EA00020032008E
:103B30008582EA00010037008502EA0085017200F3
:103B4000130032000001EB00610B20000270A7009F
:103B5000070037004200A9000482D2008582D2000B
:103B60000080D2000281D2008100E900F7FF3A0014
:103B70000180FD004200A9008180D30001F0A10076
:103B80000270A100814069000600A70001F0A000BA
:103B90004F037800CF027800000006000001780093
:103BA00081017800014078000080FD0000F0A00055
:103BB0008180D2000180FD008180FB00E4082000AC
:103BC00081405200060032000000E0000400320094
:103BD0004200A9000080D3008100E900FAFF3A000A
:103BE00003F0A600020037000000EA0000003700E2
:103BF00000000600851F780040C6B30012E9B70038
:103C00001629EF001829EF00C44880006320E10066
:103C100007003D001889BF001009B400104078006B
:103C2000F00FB2001629B4001829EC00F6FF370097
:103C30001689EE008002780005027800F40FB200C9
:103C4000B4488800300020001009B4000002780059
:103C5000144078000160EF001609E3000300320011
:103C60001289BF00A1488000130037000000200027
:103C70001009B400944880000042900094488800E5
:103C8000100020001009B400104078000BE0B700CD
:103C90008042EB00200020001009B40000027800F0
:103CA000144078000160EF000080720014A9B70092
:103CB0001289BF00A1488000CF02780000000600F2
:103CC000881F78002801200004000900B81F780030
:103CD000878669000304780087047800FA7F200053
:103CE0004200A9004220A90044C4DE000804650087
:103CF0000800E0006C0032004200A9004220A90048
:103D0000C4CCDE00890465000900E00066003200D2
:103D10000005EB000906540003003900FC3FB00029
:103D200061003100040037001B4020000B065600E4
:103D30005D0039005C0032000004EB008004EB0001
:103D40000005EB008005EB00F301B2000340A0008A
:103D5000F701B2000740A0008C1F78006C03200020
:103D600004005000858058000601590087815900E1
:103D7000020033000600310006003A000400400053
:103D8000858048000601490087814900010037000D
:103D90000800A0000C06E9000B0032004200A90058
:103DA0000080D2008180D2000281D2008381D200C3
:103DB0004200A9000884D2008984D2000A85D2007A
:103DC0008B85D200E6FF37004F0678000B50A70026
:103DD00001003700060037004200A9008B85D300A0
:103DE0000A85D3008984D3000884D30003003700F8
:103DF0000C06E9004200A9002B0032004200AF008F
:103E0000090037000080D2008180D2000281D200F8
:103E10008381D200040250008582580006035900B5
:103E200087835900150039000804E80013003A00A0
:103E30008904E80011003A000A05E8000F003A0082
:103E40008B05E8000D003A000C06E8001600320071
:103E50000A0037000C06E900130032000B40A700EF
:103E6000060037004200A9000884D2008984D200ED
:103E70000A85D2008B85D200F8FF37004466DD004A
:103E80004200A9000CF0A1000DF0A7000CF0A0006A
:103E90000B40A1008B016E000A01780089007800B8
:103EA0000800780005003700000020000100200015
:103EB000020020000300200000003700A8012000BD
:103EC000040009004F1478004F0478000000060039
:103ED0001089BF008000EB0000F0A7008080EB009D
:103EE00012A9B700A1488800A44880006020E10022
:103EF0000900350004003C0094488000430B20007A
:103F00000418E10004003100440B200094488800AC
:103F10001429EF0009003700A44880006020E10068
:103F200006003C0003003500944880006020E1005A
:103F3000020031001229EF001429EF001009F800E7
:103F40001809F9000002EB0019E9AF000082EB004C
:103F5000D44888001C29EF001E29EF00440B2000E4
:103F6000044988002229EF00040220002449880027
:103F70002629EF00F4072000444988002A29EF0091
:103F8000261D02000000000012A9B700A148880009
:103F90001289BF00A1488000000006000F782200AF
:103FA000F07F220020A0B700000000004044240061
:103FB00020058800404424004005880081E0A800D6
:103FC0006004200042E7B7007005200042E7B70018
:103FD00042C7A900F043200080A6B700C0F023002C
:103FE000A4A6B70020012000C0A6B7000030210021
:103FF000C2A6B70000302000CCA6B7004051210077
:10400000CEA6B7006004200042E7B700700520008C
:1040100042E7B70042C7A8004427EF00B828EF00E6
:1040200004002800041188000440200014118800B6
:104030002062A800041A200044118800C028EF0064
:10404000C228EF00C408A900C428A900C448A900D8
:10405000C468A900B028EF00B228EF00B428EF0030
:10406000B628EF001400200054488800C488A90036
:104070002CA3EF0052003700C0060800000000002B
:104080004BF03F005C0A5800F63B8F0000C03C003C
:104090008B28AC003CBEF6003FD2D50044168C0005
:1040A00015D7BF0069005A002E1B8700993F9A0060
:1040B0005FAD4B0091E40100C05D11002F92E40060
:1040C00081FB3F0038DA9100809DC500E0BF6F00A2
:1040D00012C0B400C309AB003F6BC100034EC10066
:1040E000B545BF00F7400500FF005A00EF3FF30061
:1040F000A3E2F700D7FF010040C0B400FF053C0079
:1041000058FC3F003BD3C000B5BA8C00E23F3900F9
:10411000D3C73D004179B2003F870D003C50D0002D
:10412000AF623F00304B8D00A282AA00044009001C
:10413000A0404A000576030040EC9E003788A600A8
:1041400044F03F008F128D00299A5B00C73F0E009C
:10415000E0807C00A1D886003F294B00FB95C2007F
:10416000371A3F0080020800BA000000800B0800E8
:10417000CA7F000000007F000064000000006400AF
:1041800040350000000000000201E8006110E1007D
:1041900004003A009101BA003182BA0006C0BF00A3
:1041A000000006006210E10002003A0007C0BF00F4
:1041B0000000060008C0BF000001EB000000060080
:1041C000060020000000200090018800C0032200AB
:1041D000800078000001EB00C42002000000000015
:1041E0000BE0B700C4200200000000000AE0B700A6
:1041F0000500E0001900320005F0A60007003700B6
:10420000C4200200000000000DE0B700C42002003E
:10421000000000000CE0B70005F0A10005E0A600DA
:104220000800370005E0A1008502E900C420020073
:10423000000000008043780005800900075B7800DB
:10424000E5FF3700C420020000000000005B78009A
:104250008502E900FBFF3A00DFFF3700C2150200CC
:104260000000000020032000B21502000000000042
:104270001481BF00010020000CA9B700714888001C
:10428000744880006020E1008400350004003C0098
:1042900064488000831320000418E1007F0031008F
:1042A000744680005346800003005200CCA8B7003B
:1042B000A44680008346800003005200D2A8B700C5
:1042C000CC88BF008001EB0000F0A7008081EB00EC
:1042D0008300780003017800081602000000000047
:1042E00004002000050020000600200007FE230037
:1042F0006C160200000000008002780001037800C4
:104300008203780003047800CA88BF008001EB00B4
:1043100000F0A7008081EB008300780003017800A3
:1043200008160200000000004300A900851F780065
:10433000861F7800871F78000502780086027800C3
:1043400007037800880378007C1702000000000053
:10435000CF0378004F037800CF0278006A1902007B
:1043600000000000CAA8B700D288BF008001EB009F
:1043700000F0A7008081EB00830078000301780043
:1043800008160200000000000400200005002000C4
:104390000600200007FE23006C160200000000004B
:1043A000800278000103780082037800030478001B
:1043B000D088BF008001EB0000F0A7008081EB00F7
:1043C0008300780003017800081602000000000056
:1043D0004300A900851F7800861F7800871F78009A
:1043E00005027800860278000703780088037800C9
:1043F0007C17020000000000CF0378004F03780014
:10440000CF0278006A19020000000000D0A8B700AF
:10441000CC88BF0000F0A600030037000400200095
:104420006346800003005200800278006228E100A9
:1044300002003400CC88BF000100370000002000DB
:10444000CCA8B700CA08F8001009F900A6150200A8
:1044500000000000D288BF0000F0A6000300370073
:104460000400200093468000030052008002780080
:104470006228E10002003400D288BF00010037004A
:1044800000002000D2A8B700D008F8001009F900F9
:10449000AC150200000000001421EF00BC48E2004F
:1044A00045003A00C428AF00090037001669EF0044
:1044B0001769EF00C4032000C4488800081B0200ED
:1044C00000000000B028EF00B228EF00060037001F
:1044D0001669EF0020C0B30017E9B7001829EF00F4
:1044E000081B020000000000C448AF000A003700AB
:1044F00010C0B30016E9B7001769EF00C40320002D
:10450000C4488800081B020000000000B428EF0027
:10451000B628EF000700370010C0B30016E9B70057
:1045200020C0B30017E9B7001829EF00081B0200EC
:1045300000000000C468AF000800370020C0B300CE
:1045400016E9B7001769EF0044062000C448880048
:10455000081B0200000000000800370020C0B30064
:1045600016E9B70020C0B30017E9B7001829EF001B
:10457000081B020000000000FE28EF00C468AE0027
:104580000C003700C448AE000A003700C428AE0053
:1045900008003700BA08AE0006003700BA08A900C4
:1045A00050C6B30012E9B7001429EF00EC1B02005B
:1045B00000000000CF003700FE88BF000809E300BC
:1045C00013003A0020C0B30016E9B70020C0B300C2
:1045D00017E9B7001829EF00081B020000000000CF
:1045E000BA68AE0009003700BB68AF0007003700AB
:1045F000BA68A90050C6B30012E9B7003400200021
:10460000A4488800EC1B02000000000008003700EE
:1046100020C0B30016E9B7000AC9BF0017E9B70008
:104620001829EF00081B020000000000BB68A90069
:104630000000200001002000B2468000C346800038
:10464000C0190200000000000200390010C0B300D1
:10465000010037000040EB0010E9B7000000200027
:10466000010020003247800043478000C01902004B
:10467000000000000200390010C0B3000100370044
:104680000040EB0011E9B700D688BF00C1468000AA
:1046900001F0A100800278000103780000002000F2
:1046A000010024000501780086017800C01902008D
:1046B000000000002500390000002000812C2400AB
:1046C0001247800023478000C0190200000000004C
:1046D0000300390000002000812C2400170037005F
:1046E000E288BF0021478000281A02000000000075
:1046F0008002780001037800C5488800D648880009
:104700001C29EF001E29EF00440620000449880000
:104710002229EF0024032000244988002629EF00E5
:1047200044062000444988002A29EF00261D020083
:1047300000000000801D020000000000E2A8B70099
:1047400021478800BB28A9000F003700BA28AE0017
:1047500009003700BB28AF0007003700BA28A900BE
:1047600050C6B30012E9B70014002000A448880026
:10477000EC1B02000000000020C0B30010E9B700ED
:10478000E228EF00E428EF00E688BF004147800000
:1047900001F0A100800278000103780000002000F1
:1047A000010024000501780086017800C01902008C
:1047B000000000002500390000002000812C2400AA
:1047C00092478000A3478000C0190200000000004B
:1047D0000300390000002000812C2400170037005E
:1047E000F288BF00A1478000281A020000000000E4
:1047F0008002780001037800C5488800D648880008
:104800001C29EF001E29EF004406200004498800FF
:104810002229EF00E4012000244988002629EF0026
:1048200044062000444988002A29EF00261D020082
:1048300000000000801D020000000000F2A8B70088
:10484000A1478800BB48A9000F003700BA48AE0056
:1048500009003700BB48AF0007003700BA48A9007D
:1048600050C6B30012E9B70024002000A448880015
:10487000EC1B02000000000020C0B30011E9B700EB
:10488000F228EF00F428EF00E288BF002147800003
:10489000CE1D020000000000800278001669EF00C3
:1048A000801F780010C9BF0017E9B7004F007800DB
:1048B000C5488800081B020000000000F288BF0005
:1048C000A1478000CE1D0200000000008002780099
:1048D000801F780010C0B30016E9B7004F007800C1
:1048E00011C9BF0017E9B700C5488800081B0200BE
:1048F00000000000C002A800C202AF0001003700A3
:10490000C428A800C022A800C222AF0001003700BE
:10491000C448A800C962A800CB62AF0001003700FC
:10492000C468A800C408AE0004013700C408A90088
:10493000648C200084488800FA1D020000000000FA
:10494000BCA8B700F1458800BCC8BF000160EF00FB
:104950000080B2000B0032001080B2001A0032005A
:104960003080B200680032001080B200B600320021
:104970007080B200CC0032001080B200D80032004B
:10498000E8003700BA08A800BB08A800C428A9009E
:10499000C448A900C468A9000029EF000229EF005B
:1049A0000429EF000629EF000829EF001400200079
:1049B00054488800F407200074468800440620000C
:1049C000A4468800DD003700BA28A800BB28A8004C
:1049D000BE88BF008001EB0000F0A7008081EB00E3
:1049E0008300780003017800081602000000000030
:1049F0000400200005002000060020009705240088
:104A0000601E0200000000004A11020000000000C9
:104A100001488800124888000000200071382400F6
:104A20000248800013488000C01902000000000006
:104A30000300390000002000713824000C0037000A
:104A40000489BF003148800002002000031A2400BE
:104A5000C01902000000000003003900000020001F
:104A6000011A2400020037000089BF0011488000AD
:104A700000A9B700114888000089BF0011488000D4
:104A8000B2478000C3478000C01902000000000048
:104A900006003A0050C6B30012E9B7001400200027
:104AA000A4488800EC1B020000000000D628EF009C
:104AB000D828EF00E228EF00E428EF00DA28EF0022
:104AC000DC28EF004300A8004200F80081E0A900C4
:104AD00042E0EF0081E0A8000089BF00114880009B
:104AE000B2478000C34780008E1102000000000022
:104AF00081E0A9004200F90081E0A800DEA8B7002B
:104B0000014788008D003700BA48A800BB48A800BC
:104B1000BE88BF008001EB0000F0A7008081EB00A1
:104B200083007800030178000816020000000000EE
:104B30000400200005002000060020009705240046
:104B4000601E0200000000004A1102000000000088
:104B50002148880032488800000020006139240084
:104B60002248800033488000C01902000000000085
:104B70000300390000002000613924000C003700D8
:104B80000489BF003148800002002000031A24007D
:104B9000C0190200000000000300390000002000DE
:104BA000011A2400020037000489BF003148800048
:104BB00004A9B700314888000489BF00314880004B
:104BC000D2478000E3478000C019020000000000C7
:104BD00006003A0050C6B30012E9B70024002000D6
:104BE000A4488800EC1B020000000000E628EF004B
:104BF000E828EF00F228EF00F428EF00EA28EF00A1
:104C0000EC28EF004300A8004200F80081E0A90072
:104C100042E0EF0081E0A8000489BF003148800035
:104C2000D2478000E34780008E11020000000000A0
:104C300081E0A9004200F90081E0A800EEA8B700D9
:104C4000814788003D003700BA68A800BB68A8000B
:104C5000BE08F8000809F900444880006520E1001A
:104C60000300340054002000444888000500370049
:104C7000444880006120E10002003D001400200053
:104C800044488800FE88BF00444880000020E100BE
:104C9000030034001400200054488800010037004D
:104CA0000A29EF0025003700BA88A800BB88A800B1
:104CB000BE08F8001009F900681F0200000000009B
:104CC000CEA8B70050C6B30012E9B70044002000D8
:104CD000A4488800EC1B0200000000001700370009
:104CE000BAA8A800BBA8A800F44580006120E10094
:104CF00003003A0054082000A44688000200370050
:104D000044062000A446880050C6B30012E9B7004C
:104D100054002000A4488800EC1B020000000000A2
:104D20000600370040C6B30012E9B7001429EF00AF
:104D3000EC1B020000000000000037004CFD3700B3
:044D40000040FE0031
:020000040001F9
:0807F800F7F900FF7F3F00FF4D
:00000001FF
;PIC24FJ48GA002
;CRC=3788  CREATED="18-Nov-18 16:28"
